:1000000037C05BC05AC059C058C057C056C055C051
:1000100054C083C552C03EC718C74FC04EC04DC064
:100020004CC04BC04AC03AC156C455C454C453C452
:1000300052C451C43FC16FC14EC44DC44AC1C9C1AD
:10004000AEC1B7C22FC147C463C245C4EAC243C4EC
:100050008CC141C409C10000C84200002041000019
:10006000803FCDCCCC3D0AD7233C6F12833A2A0C7B
:1000700011241FBECFE5D4E0DEBFCDBF10E0A0E667
:10008000B0E0EDE5FEE102C005900D92A43CB107A1
:10009000D9F721E0A4ECB0E001C01D92A43EB20764
:1000A000E1F710E0C8E3D0E003C02197FE0173DE62
:1000B000C733D107D1F767D974CEA2CF0F931F935F
:1000C000CF93DF93EC018B018FE99FE00197F1F76C
:1000D00000C0000088D68883EFE9FFE03197F1F790
:1000E00000C0000080D689838A3311F08D3029F456
:1000F00088818053F80180831CC08FE99FE00197BD
:10010000F1F700C000006FD68A3329F08BEA9DE139
:100110003BD881E015C01A8260E270E0CE010ADCB3
:10012000882349F0482F60E0CE01E0D6EBDCF801EF
:10013000608380E005C060E070E080EC9FE7F6CF70
:10014000DF91CF911F910F9108950F931F93CF933C
:10015000DF93062F282F30E0C1E0D0E002C0CC0FA3
:10016000DD1F8A95E2F78091110190E08C239D2399
:1001700011E0181619060CF010E0602F612746E018
:10018000429FC001439F900D112486569E4FDCD4A0
:1001900080911901011711F0C82B02C0C095C82326
:1001A000C0931901DF91CF911F910F910895BF92D4
:1001B000CF92DF92EF92FF920F931F93CF93DF9333
:1001C000B82E8AE9C82E81E0D82EC0E0D0E001E048
:1001D00010E0EB2CF12C98010C2E02C0220F331FE3
:1001E0000A94E2F78091110190E08223932361E069
:1001F000181619060CF060E02E213F2181E012163E
:1002000013060CF080E06827C6019ED4219686E094
:10021000C80ED11CC530D105F1F6B0921901DF919D
:10022000CF911F910F91FF90EF90DF90CF90BF90F3
:100230000895CF92DF92EF92FF920F931F93CF9387
:10024000DF93CDB7DEB7A1970FB6F894DEBF0FBE30
:10025000CDBF90E0FC01E154F109E831F10508F06F
:100260003AC3ED5EFF4F099486E990E080D5909106
:10027000170181E0892780931701882359F0809125
:1002800015019091160190931401809313018FE052
:100290009EE102C089E09EE15CD5E9C188EF9DE165
:1002A00058D5C0D589E990E062D561E18EEE90E045
:1002B00069D5DDC18CE990E05AD50EE710E060E128
:1002C000C80160D5005F1F4F20E00E3E1207B9F74E
:1002D000CEC18FE990E04BD58FE99FE00197F1F710
:1002E00000C0000080D58A3399F43DC1AFE9BFE07A
:1002F0001197F1F700C0000076D5182FEFE9FFE065
:100300003197F1F700C000006ED58A3309F4B8C107
:100310008BEA9DE184C182EA90E029D5CE01019665
:1003200041D7AC018115B1E09B0709F4A0C18F341E
:1003300071F425E0BE016F5F7F4F81E191E089D7C5
:10034000811195C1609111018DE790E08CC127E08A
:10035000BE016F5F7F4F80E191E07BD7811187C144
:10036000609110018CE790E07EC185EA90E0FFD4B7
:10037000CE01019617D78115E1E09E0709F477C1F8
:1003800025E0AC01BE016F5F7F4F8FE091E061D748
:1003900081116DC160910F018BE790E064C188EA23
:1003A00090E0E5D4CE010196FDD68115F1E09F07DE
:1003B00009F45DC127E0AC01BE016F5F7F4F8EE0A5
:1003C00091E047D7811153C160910E018AE790E017
:1003D0004AC18BEA90E0CBD4CE010196E3D67C01F2
:1003E000811521E0920709F442C18B7F992781345E
:1003F000910581F507E011E09E012F5F3F4F8AE0F4
:10040000E82EF12C91E3D92E4DE2C42E4CE2D80116
:100410008D918D01F901319687FF03C0D901CC92EE
:100420000FC08A301CF0D901DC929F01F90131968E
:10043000082E000C990BB70187DC805DD9018C93E5
:100440009F012F5F3F4F4083B1E00E301B07F9F64D
:100450001082ACC060E270E0CE0101966BDA082F2A
:10046000FE01319610E0101728F481918A3329F0AB
:100470001F5FF9CF8AED9DE1D2C0E3E4EE123BC0ED
:1004800061E0610FE1E0F0E0EC0FFD1FE60FF11D10
:1004900080818B7F813409F58091060187FF06C03A
:1004A0008DE289839E012E5F3F4F14C08A302CF06D
:1004B00091E39983FE01329602C0FE0131969F01BD
:1004C0002F5F3F4F082E000C990B6AE070E03CDC78
:1004D000805D8083D9011C9269C0402F461BCE01EC
:1004E000019681D5853008F08FEF80930601682F43
:1004F00089E790E0B8C0412F60E0CE01019673D546
:10050000F82EB6E0B81708F061C184E19EE187C01B
:100510008EEA90E02CD4CE01019644D68C01811550
:10052000914009F4A4C089818A3319F4CE0101965F
:10053000D9D560E270E0CE010196FCD941E050E0EF
:100540004C0F5D1F480F511DCE010196FC01841711
:10055000950708F051C10196208120532A30B0F34D
:100560008DEC9DE15CC08FE99FE00197F1F700C041
:10057000000039D4082FAFE9BFE01197F1F700C0B0
:1005800000008B7F813409F076C02DD48A3309F4C2
:10059000ADCEEDD587E389838CE28A8395E39B8397
:1005A0008C8380911201805D8D831E82CE01019625
:1005B0005DC081EB90E0DBD3CE010196F3D58115D0
:1005C000F1E09F0709F453C0853441F481E790E0DE
:1005D000FFD9BE016F5F7F4FAFD5E8CF89818A33E6
:1005E00019F4CE0101967ED560E270E0CE0101964D
:1005F000A1D9FE01319600E0081778F491919A3361
:1006000011F00F5FF9CF402F60E0CE010196EBD4DF
:10061000182F853008F079CF1EC18CEB9DE1B4D541
:1006200026C084EB90E0A3D3CE010196BBD5811503
:1006300021E09207E1F08B7F99278134910559F4ED
:10064000809104014AE0BE016F5F7F4F082E000CCD
:10065000990B7BD9ABCFCE0101962ED580930401A7
:10066000682F80E790E0CBD980E990E080D383E9E0
:1006700090E07DD330C1B7D38A3309F049CE3BC077
:10068000BE016F5D7F4FCE01019618DD8111EFCF66
:100690008FE99FE00197F1F700C000005AD68A3039
:1006A00009F4A1D3E9A1F0E01F3451F0143591F41D
:1006B000EE0FFF1FE75BF14E85919491BC0115C0D1
:1006C00026E02E9FC0012F9F900D1124FC01E656BD
:1006D000FE4F09C026E02E9FC0012F9F900D1124D0
:1006E000FC01E854FE4F6381748140E150E0CE018B
:1006F00001965ED95BCFBE016F5D7F4FCE01019643
:10070000DDDC8111B4CF89A1803108F0FECEEFE9A4
:10071000FFE03197F1F700C0000065D39E012F5F25
:100720003F4F790110E08D30B1F08115A1E09A07BB
:1007300091F01F5FF70181937F01103121F486EE64
:100740009DE122D508C08FE99FE00197F1F700C035
:10075000000049D3E8CFAFE9BFE01197F1F700C03F
:100760000000F7D58A3009F43ED3E1E0F0E0EC0F69
:10077000FD1FE10FF11D10821F5F412F50E0E9A125
:10078000F0E00F3451F0043591F4EE0FFF1FE75BFA
:10079000F14E85919491BC0115C026E02E9FC001B9
:1007A0002F9F900D1124FC01E656FE4F09C026E054
:1007B0002E9FC0012F9F900D1124FC01E854FE4F85
:1007C00063817481CE0101960BD94ECF61E0610F38
:1007D000402F461BCE01019606D4853008F08FEFDE
:1007E0002F2DFF0C330BF901E95FFE4F8083682F3B
:1007F000C9018E589F4F37CF0435E1F4CE010196E1
:100800005BD487FD82CE082E000C990B209112013B
:1008100030E0821793070CF078CEFC01E65EFE4FC5
:1008200080814AE0BE016F5F7F4F082E000C990B5C
:100830008CD81CCFBE016F5F7F4F809105017CD4A7
:10084000CE01019694D28AE373D2BE016F5F7F4FCF
:1008500080911901C1CEFE01E00FF11D828181332B
:10086000B1F168F48033A9F181E090E001C0880F14
:100870001A95EAF790911901892799DCF5CE86340B
:1008800009F501E060E0812F60DC002309F4ECCE83
:1008900081E790E09DD821E030E002C0220F331FB5
:1008A0001A95E2F74091190150E042235323452B5A
:1008B00019F0682F622B03C02095622F682381E70F
:1008C00090E0D1CE8E3481F601E061E0DCCF00E033
:1008D000FCCF00E0D7CFA1960FB6F894DEBF0FBED5
:1008E000CDBFDF91CF911F910F91FF90EF90DF90DF
:1008F000CF9008957F928F929F92AF92BF92CF92A6
:10090000DF92EF92FF920F931F93CF93DF93CDB7B8
:10091000DEB769970FB6F894DEBF0FBECDBFC12C0E
:1009200030E3D32EEE24E394F12C20ED722E7D0CD7
:1009300080911201781608F0BDC08C2D90E08C5388
:100940009F4FDC012C91283209F0B0C0BE016F5ED0
:100950007F4F54D39E012F5E3F4F99E0E0E09150CE
:1009600099F0D9018D919D01E827AE2FAF70B0E0CD
:10097000A059BF4F4C91E295EF70F0E0E058FF4F67
:100980008081E42FE827EBCF898D8E1319C06A8907
:1009900070E0762F6627770F770F770F8989B8E099
:1009A0008B9FC0011124682B792B072E000C880B1C
:1009B000990BDBD820E030E040E05CE362D904C072
:1009C00060E070E088E493E49DD84B015C01CB01CA
:1009D00082589F4F072D10E08D3F910508F04EC0C3
:1009E000F801E65EFE4F808220910401022E000C89
:1009F000330B80911801870102C0000F111F7A94F8
:100A0000E2F728153905DCF490E080239123892B47
:100A100009F04CC087EB90E0AAD18D2D89D18AE3F3
:100A200087D14AE0BE016F5F7F4FC4018ED79FD14F
:100A300083E990E09CD180911801082B1CC01127FC
:100A400090E080239123892B89F18CEB90E08FD16A
:100A50008D2D6ED18AE36CD14AE0BE016F5F7F4F6E
:100A6000C40173D784D183E990E081D100951095BA
:100A70008091180108230093180118C082EA9DE1B3
:100A800068D14AE0BE016F5F7F4FC4015ED76FD16E
:100A900080E44ED1F801EE0FFF1FE75BF14E859128
:100AA000949160E16FD183E990E061D1D394E8E063
:100AB000CE0E3BCFD1D269960FB6F894DEBF0FBEF3
:100AC000CDBFDF91CF911F910F91FF90EF90DF90FD
:100AD000CF90BF90AF909F908F907F900895DC0152
:100AE000ED91FC911197908112968C91892B8083C6
:100AF00008950F931F93CF93DF938C0185E5B1D2B7
:100B0000E801085F1F4F8991ACD2C017D107D9F710
:100B1000DF91CF911F910F9108951F920F920FB601
:100B20000F9211248F939F9380911501909116013C
:100B3000019690931601809315019F918F910F90CC
:100B40000FBE0F901F901895DC01ED91FC9111974D
:100B500012968C919181662311F0892B02C08095A9
:100B6000892381830895F8948091E2019091E301B3
:100B7000B6DF60E08091E2019091E301E5DF80E182
:100B80008A95F1F7A091E201B091E301ED91FC911A
:100B90001197908112968C91809589238083E5E34B
:100BA000EA95F1F70000A091E201B091E301ED9127
:100BB000FC9111973197908112968C91982381E046
:100BC00009F480E07894E3EDF0E03197F1F700C0AC
:100BD0000000089580FF24C0F89460E08091E20155
:100BE0009091E301B1DF8091E2019091E30177DF21
:100BF00085E38A95F1F70000A091E201B091E3014D
:100C0000ED91FC911197918112968C91892B8183A2
:100C100078948BED90E00197F1F700C00000089503
:100C2000F89460E08091E2019091E3018DDF809182
:100C3000E2019091E30153DF83E091E00197F1F746
:100C400000C00000A091E201B091E301ED91FC91A0
:100C50001197918112968C91892B818378949AE1D6
:100C60009A95F1F700C00895F894A091E201B0912F
:100C7000E301ED91FC911197908112968C918095F2
:100C80008923808378949DE7915009F44FC08AE0CE
:100C90008A95F1F700C0A091E201B091E301ED91D6
:100CA000FC9111973197208112968C91822361F3E8
:100CB000F89460E08091E2019091E30145DF80913A
:100CC000E2019091E3010BDF7894EFECF7E03197CC
:100CD000F1F700C00000F894A091E201B091E301A7
:100CE000ED91FC911197908112968C9180958923BA
:100CF000808387EC90E00197F1F700C00000A0919D
:100D0000E201B091E301ED91FC911197319790814F
:100D100012968C91982381E009F080E07894E7E6C0
:100D2000F6E03197F1F700C00000089583E00895E0
:100D3000909186019F5F9F73209185019217E1F347
:100D4000E92FF0E0ED5BFE4F808390938601559A8A
:100D50000895CF93DF93FC018491EF0121968823BE
:100D600019F0E6DFFE01F8CFDF91CF910895CF9320
:100D7000DF93EC018991882311F0DADFFBCFDF915B
:100D8000CF910895EF92FF920F931F93CF93DF932C
:100D9000CDB7DEB7EDB6FEB6462F50E09A012F5F15
:100DA0003F4F6DB77EB7621B730B0FB6F8947EBFD3
:100DB0000FBE6DBF0DB71EB70F5F1F4FF801E40FD9
:100DC000F51F1082BC01C801F3D5C801D0DF0FB6F2
:100DD000F894FEBE0FBEEDBEDF91CF911F910F9133
:100DE000FF90EF900895909184018091830198176E
:100DF000B1F08091420110924201909183019F5F76
:100E00009F7190938301E0918301F0E0EE5DFE4FCE
:100E1000208190E0982F8827820F911D089580E00F
:100E200091E008959091860180918501981739F09D
:100E30008FE39CE90197F1F700C00000F3CFF8942D
:100E4000D2DF81159140E1F7FFCF1F920F920FB6CD
:100E50000F9211248F939F93EF93FF9390918601AC
:100E600080918501981761F0E0918501EF5FEF7344
:100E7000E0938501F0E0ED5BFE4F80818CB901C00D
:100E80005598FF91EF919F918F910F900FBE0F900A
:100E90001F9018951F920F920FB60F9211242F9347
:100EA0008F939F93EF93FF938BB19CB18871E091E7
:100EB0008401EF5FEF7120918301E21739F0E09335
:100EC0008401F0E0EE5DFE4F908301C082E09091DE
:100ED0004201892B80934201FF91EF919F918F9165
:100EE0002F910F900FBE0F901F9018956F927F92C9
:100EF0008F929F92AF92BF92CF92DF92EF92FF922A
:100F00000F931F93CF93DF93A42EEC01C60FD11D37
:100F100088818D3221F421967724739404C08B321A
:100F200009F42196712CFE01B12CBA1429F081919B
:100F30008E3211F0B394F9CF83E08B1518F421961B
:100F4000BA94FACF8B2C912C8A2D90E088199909AC
:100F500005971CF034E0A32EAB0C00E010E0C12C90
:100F6000D12C76010A1560F5B01631F1688170E078
:100F700060537109072E000C880B990BF6D50B15E1
:100F800018F0E2E0F0E002C0E3E0F0E0E00FF11F73
:100F9000E819F909EE0FFF1FEE0FFF1FEA5AFF4F86
:100FA00025913591459154916CD69B01AC01C701B7
:100FB000B60144D56B017C010F5F1F4F2196D2CF44
:100FC000C701B60171109058DF91CF911F910F9119
:100FD000FF90EF90DF90CF90BF90AF909F908F9059
:100FE0007F906F900895442311F080DF04C060E08B
:100FF00070E080EC9FE786D5862F0895CF92DF9230
:10100000EF92FF920F931F93CF93DF93EC018B012D
:101010002BDECE016EDD8EEB24D0E801680189E085
:10102000C80ED11C88E0E82EF12C10E001E09BDD19
:101030008111102B000F81E0E81AF108C1F7199314
:10104000CC16DD0679F7DF91CF911F910F91FF90BC
:10105000EF90DF90CF9008CE07DE8CEC02D084E4D6
:1010600000C00F931F93CF93DF93082FC8E0D0E009
:1010700011E081E0902F912309F480E0ABDD110FA6
:101080002197B9F7F894A091E201B091E301ED91B5
:10109000FC911197908112968C9180958923808381
:1010A00060E08091E2019091E3014EDD7894DF9160
:1010B000CF911F910F910895CF93DF93EC0160E2E0
:1010C00070E038D4882329F0482F60E0CE010EDF8D
:1010D00004C060E070E080EC9FE714D5862FDF91BC
:1010E000CF910895CF93DF93FC0101900020E9F7A1
:1010F00031979F01281B390B622FDC011196FC01EF
:10110000A90155277E2F781B761768F4ED01C81BBF
:10111000D90BC417D5071CF47C91708301C01082D1
:1011200011963196EFCFFC01E40FF51F10828FEF7F
:10113000820FDF91CF910895FB0127E030E0A1E01D
:10114000B0E090E0AD01022E02C0440F551F0A949A
:10115000E2F748235923452B11F440E301C041E352
:1011600041932150310970F7FB01108608953BDE51
:101170008115914041F037DEEFE9FFE03197F1F75B
:1011800000C00000F5CF0895CF93DF93EC0181EC10
:1011900090E0EDDDCE01DDDD83E990E0E8DDDF917B
:1011A000CF91E5CFEF92FF921F93CF93DF937C0116
:1011B0001ADEEC018FE99FE00197F1F700C0000013
:1011C000CA3311F410DEEC01C115E1E0DE0719F4B9
:1011D00081E49EE132C08C2F9C2F90539A3018F0FE
:1011E0009D5F923020F4F701808311E001C010E090
:1011F0008FE99FE00197F1F700C00000F4DD811551
:10120000E1E09E0769F0F701E10FF11D80838D3069
:1012100011F4108205C08A30E1F31F5F103241F7EC
:10122000F701E10FF11D8081882359F0103219F088
:1012300082E29EE102C082E39EE1A6DF80E091E0CF
:1012400002C0CE019927DF91CF911F91FF90EF90BF
:101250000895EF92FF920F931F93CF93DF937C013A
:10126000EB01022F4B7F55274134510531F4DC014E
:101270008C9162DFCE017BDD2AC088818A3309F43C
:10128000219660E270E0CE0155D3982FFE01DE0179
:1012900010E01917B8F42D912A3311F01F5FF9CF20
:1012A000412F60E0CE019FDE87FD09C0202F30E096
:1012B000482F082E000C550B421753071CF184E1F0
:1012C0009EE104C0883028F480E690E05DDF81E094
:1012D00039C027E030E0419150E081E090E04133B7
:1012E000510514F480E090E0022E01C0880F0A94AA
:1012F000EAF7D7019C91892B8C932150310958F73B
:1013000080E020C01F5FC10FD11D9881F70140818F
:10131000903371F421E030E0F90102C0EE0FFF1FBD
:101320008A95E2F7CF0180958423D7018C93E8CF8B
:1013300021E030E001C0220F8A95EAF7242BF70163
:101340002083DECFDF91CF911F910F91FF90EF901F
:1013500008959091840180918301981789F080917C
:101360004201E0918301F0E03196EF71FF27EE5DDD
:10137000FE4F208190E0982F8827820F911D0895BD
:1013800080E091E00895CF93DF93CDB7DEB7299742
:101390000FB6F894DEBF0FBECDBFA8959EE088E1E2
:1013A0000FB6F894A89581BD0FBE91BD85E083BFAF
:1013B00012BE81E089BF8FEF90E00AD38130B9F58A
:1013C0008AE790E005D380930E018BE790E000D38D
:1013D00080930F0181E790E0FBD2E9D68CE790E0A3
:1013E000F7D2809310018DE790E0F2D28093110143
:1013F00062E7E62E60E0F62E07E011E0C701E8D2D2
:10140000F80181938F01FFEFEF1AFF0A21E00E3000
:101410001207A1F780E790E0DBD28093040189E70F
:1014200090E0D6D2809306010AE911E017C002E7E6
:1014300010E059E7E52E50E0F52E6FEFC801DFD23E
:101440000F5F1F4FE016F106C1F76FEF89E790E0DD
:10145000D6D261E08FEF90E0E3D2E4DCC8013FDB5D
:101460000A5F1F4F81E0083B1807C1F7789410927C
:10147000860110928501109284011092830110BCA4
:1014800087E689B988E98AB986E880BDA89584E9A4
:1014900091E09093E3018093E201E0919401F09157
:1014A0009501908180919601809589238083109287
:1014B000900110928F014FE8A42E41E0B42EF50167
:1014C000129291E0E738F907D9F7912C34ECC32E4A
:1014D00030E0D32E7724739480918F01811103C063
:1014E000C3DB81110AC01092900110928F0190927B
:1014F0001201F12C2FE1E22E48C080EFB2DD11E0A5
:10150000E12C812C01E02FDBF82E2DDBE1E0FE1237
:1015100003C08130A9F42FC0EE2DF0E0F8121AC0FC
:1015200080919001081738F4DF01A957BE4F8C91C4
:10153000812331F402C0801719F0F12C802E0AC0EB
:10154000EE2DF0E0E957FE4F8081812B8083FF2450
:10155000F39407C0E957FE4F9081812F809589232E
:1015600080838F2D37DB0F5F110F11F4E39411E0AF
:10157000F7E0FE1540F6013408F4B5CF80929001F3
:1015800081102FC170928F012CC180911201F81629
:1015900040F528E0F29E800111240C531F4FBE013C
:1015A0006F5F7F4FC8012ADDED825EDBC801A1DAE3
:1015B0008EE457DD8B8155DD8C8153DD8D8151DDCE
:1015C00053DBC80196DA88E44CDD8FEF99EFE0E059
:1015D00081509040E040E1F700C0000045DBF3940B
:1015E000D4CFA89539DDFFEF21EE84E0F150204003
:1015F0008040E1F700C00000A89581E07BD99FEF13
:10160000E1EEF4E09150E040F040E1F700C000006E
:1016100080E50FD6CC24C394D12CA89580911701D6
:10162000882399F080911501909116012091130162
:1016300030911401821B930B8539964D08F48CC0B0
:101640001092170180E5F5D587C0109205014091F1
:10165000100150E0E8EBF1E080E090E0A081B18182
:1016600011977C919601082E02C0220F331F0A9415
:10167000E2F78A0102231323A1E0101611060CF0F1
:10168000A0E06281672371E009F470E0A71729F0F8
:1016900030910501232B2093050101963696873062
:1016A0009105E1F65090050180910E015826609059
:1016B0009101652487E0A82E81E0B82E00E010E0BB
:1016C000712C852C912C402E18017601002E02C021
:1016D000EE0CFF1C0A94E2F7C3018E219F21892B97
:1016E00061F1E820F920E114F10419F089EB90E0B0
:1016F00002C08EEB90E03BDB4AE0BE016F5F7F4FA4
:10170000C10123D134DB83E990E031DBF501808135
:10171000853098F4E114F10409F075C020910F01AF
:1017200030E0A601082E02C0440F551F0A94E2F7CC
:1017300024233523232B09F466C00F5F1F4FFFEFCF
:10174000AF1ABF0A0730110509F0BDCF50929101C1
:10175000A89580E0CFD8A89546DB811521E09207B7
:1017600089F0209115013091160130939301209357
:101770009201EFE9FFE03197F1F700C0000059D581
:10178000A89525C080910601853008F520911501A6
:10179000309116014091920150919301241B350B19
:1017A0002539364DA0F02091150130911601309366
:1017B00093012093920161E0C8D48FE39CE90197E3
:1017C000F1F700C0000060E080910601BED49FEFF9
:1017D000E3ECF9E09150E040F040E1F700C0000098
:1017E0001CCF80918701882309F47DCED601E7E8DC
:1017F000F1E081918D93AE16BF06D9F728E0C20EB5
:10180000D11C939469CE4091050190910E01492716
:1018100050E0E7E0F1E020E030E0421679F090811E
:1018200089130CC0B601022E02C0660F771F0A94FE
:10183000E2F764237523672B09F07FCF2F5F3F4FBB
:1018400031962730310549F761E0EF2809F460E06F
:101850007CD473CFE8EBF1E084E390E09183808364
:1018600061E0628320EC31E03483238397838683B5
:1018700022E0208720EB31E032872187958784871B
:1018800054E0568720EA31E0308B2787938B828B98
:1018900028E0248B20E931E0368B258B918F808FD7
:1018A00040E1428F20E831E0348F238F978F868F7D
:1018B00020E220A380E791E092A381A381E390E05E
:1018C00095A384A326A320E631E030A727A3EAE965
:1018D000F1E027E330E0318320834283A0E5B1E0EB
:1018E000B483A38337832683608760E471E07287C3
:1018F00061879587848760E8668760E371E0708B15
:101900006787938B828B60E4648B60E271E0768BF7
:10191000658B918F808F428F80E191E0948F838FD0
:10192000E4E9F1E031832083528380E091E0948305
:1019300083830895FC016150704001900110D8F735
:10194000809590958E0F9F1F0895BB274A3031F4E4
:10195000992322F4BDE2909581959F4F01C0BB274A
:10196000FB015527AA27880F991FAA1FA41710F05B
:10197000A41B83955051B9F7A05DAA3308F0A95D67
:10198000A193009779F7B111B1931192CB0100C0E7
:10199000DC01FC01672F71917723E1F7329704C0D6
:1019A0007C916D9370836291AE17BF07C8F3089561
:1019B000DC01CB01FC01E199FECF06C0FFBBEEBB11
:1019C000E09A31960DB20D9241505040B8F708950B
:1019D000E199FECF9FBB8EBBE09A99278DB3089506
:1019E000DC01A40FB51F4150504040F0CB01840FE3
:1019F000951F2E9105D041505040D8F70895262FBD
:101A0000E199FECF9FBB8EBBE09A01970DB2021603
:101A100031F02DBB0FB6F894E29AE19A0FBE08950B
:101A2000262FE199FECF9FBB8EBB2DBB0FB6F8943E
:101A3000E29AE19A0FBE019608955058BB27AA2753
:101A40000ED0E5C0D6D030F0DBD020F031F49F3F8F
:101A500011F41EF4CBC00EF4E095E7FBC1C0E92FF2
:101A6000E7D080F3BA17620773078407950718F069
:101A700071F49EF5FFC00EF4E0950B2EBA2FA02D49
:101A80000B01B90190010C01CA01A0011124FF272B
:101A9000591B99F0593F50F4503E68F11A16F04026
:101AA000A22F232F342F4427585FF3CF4695379525
:101AB0002795A795F0405395C9F77EF41F16BA0BEA
:101AC000620B730B840BBAF09150A1F0FF0FBB1F98
:101AD000661F771F881FC2F70EC0BA0F621F731FE1
:101AE000841F48F4879577956795B795F7959E3F3E
:101AF00008F0B3CF9395880F08F09927EE0F9795CC
:101B00008795089504D06894B111B5C0089598D010
:101B100088F09F5790F0B92F9927B751A0F0D1F0D6
:101B2000660F771F881F991F1AF0BA95C9F712C060
:101B3000B13081F09FD0B1E008959CC0672F782F1D
:101B40008827B85F39F0B93FCCF3869577956795CC
:101B5000B395D9F73EF490958095709561957F4F38
:101B60008F4F9F4F0895E89409C097FB3EF49095DE
:101B70008095709561957F4F8F4F9F4F9923A9F066
:101B8000F92F96E9BB279395F695879577956795F5
:101B9000B795F111F8CFFAF4BB0F11F460FF1BC039
:101BA0006F5F7F4F8F4F9F4F16C0882311F096E9CC
:101BB00011C0772321F09EE8872F762F05C066237A
:101BC00071F096E8862F70E060E02AF09A95660F33
:101BD000771F881FDAF7880F9695879597F90895EC
:101BE00097F99F6780E870E060E008959FEF80ECD0
:101BF000089500240A941616170618060906089573
:101C000000240A9412161306140605060895092ED8
:101C10000394000C11F4882352F0BB0F40F4BF2B47
:101C200011F460FF04C06F5F7F4F8F4F9F4F089587
:101C300057FD9058440F551F59F05F3F71F047957D
:101C4000880F97FB991F61F09F3F79F08795089562
:101C5000121613061406551FF2CF4695F1DF08C081
:101C6000161617061806991FF1CF8695710561059E
:101C700008940895E894BB2766277727CB0197F946
:101C800008950BD0C4CFB5DF28F0BADF18F0952344
:101C900009F0A6CFABCF1124EECFCADFA0F3959FFA
:101CA000D1F3950F50E0551F629FF001729FBB2743
:101CB000F00DB11D639FAA27F00DB11DAA1F649FEF
:101CC0006627B00DA11D661F829F2227B00DA11DA2
:101CD000621F739FB00DA11D621F839FA00D611D28
:101CE000221F749F3327A00D611D231F849F600D49
:101CF000211D822F762F6A2F11249F5750408AF082
:101D0000E1F088234AF0EE0FFF1FBB1F661F771F0D
:101D1000881F91505040A9F79E3F510570F060CF49
:101D2000AACF5F3FECF3983EDCF3869577956795F5
:101D3000B795F795E7959F5FC1F7FE2B880F911D2B
:101D40009695879597F9089597FB072E16F40094BA
:101D500006D077FD08D00BD007FC05D03EF4909557
:101D600081959F4F0895709561957F4F0895AA1BA7
:101D7000BB1B51E107C0AA1FBB1FA617B70710F076
:101D8000A61BB70B881F991F5A95A9F780959095A8
:101D9000BC01CD010895EE0FFF1F0590F491E02DD9
:101DA0000994453A54656D702E20004D697373692E
:101DB0006E6720617267756D656E74004D6973732F
:101DC000696E6720617267756D656E74004F75741A
:101DD000206F662072616E6765004E6F20617267CA
:101DE000756D656E7400546F6F206C6F6E67206147
:101DF0007267756D656E7400413A526573657474EF
:101E0000696E672E2E2E0D0A0046616C73650054B4
:101E100072756500496C6C6567616C20696E6465FC
:101E200078004E6F2043524C46206F72204E554C26
:101E30004C00496E70757420746F6F206C6F6E6704
:101E4000004E6F20646174610060005000400030FB
:0D1E5000002000100000000001F894FFCFFA
:101E5D00546F6F2073686F727420696E70757400A3
:101E6D00005EBCE2613FDD83C29C7E20A3FD1F416D
:101E7D00009D23BE46DB65F88C11AF32CA57E9745D
:101E8D004F4B000D0A00583A00503A00483A004CAA
:101E9D003A00493A00563A004E3A004D3A00523A4D
:101EAD00004F3A00543A00543A413A00543A533AEA
:041EBD0000453A00A2
:00000001FF
