S0180000537769746368436F6E74726F6C6C65722E7372656376
S113000037C05BC05AC059C058C057C056C055C04D
S113001054C0C4C252C07AC354C34FC04EC04DC0B2
S11300204CC04BC04AC07FC74CC94BC94AC949C917
S113003048C947C98DC7BCC744C943C997C716C86F
S1130040FBC7DEC87EC73DC9B0C83BC911C939C9A1
S1130050D9C737C94FC70000C8420000204100007B
S1130060803FCDCCCC3D0AD7233C6F12833AE70BBB
S113007011241FBECFE5D4E0DEBFCDBF10E0A0E663
S1130080B0E0E9E0FEE102C005900D92A43CB107A6
S1130090D9F721E0A4ECB0E001C01D92A43EB20760
S11300A0E1F710E0C8E3D0E003C02197FE014ADE87
S11300B0C733D107D1F700D54BCEA2CF0F931F93EF
S11300C0CF93DF93082FC8E0D0E011E081E0902FB8
S11300D0912309F480E087D3110F2197B9F7F8949D
S11300E0A0918001B0918101ED91FC9111979081D3
S11300F012968C9180958923808360E080918001A1
S11301009091810177D27894DF91CF911F910F91D3
S11301100895FB0127E030E0A1E0B0E090E0AD01FC
S1130120022E02C0440F551F0A94E2F748235923B4
S1130130452B11F440E301C041E3419321503109BF
S113014070F7FB01108608959DD28115914041F00E
S113015099D2EFE9FFE03197F1F700C00000F5CF45
S11301600895CF93DF93D82FC92F87EB90E062D205
S1130170ED2FFC2F8491EF012196882319F049D2A9
S1130180FE01F8CF83E990E055D2DF91CF91DCCF27
S1130190EF92FF921F93CF93DF937C0173D2EC0114
S11301A08FE99FE00197F1F700C00000CA3311F412
S11301B069D2EC01C115E1E0DE0719F48DEE9DE191
S11301C032C08C2F9C2F90539A3018F09D5F923040
S11301D020F4F701808311E001C010E08FE99FE073
S11301E00197F1F700C000004DD28115E1E09E07B0
S11301F069F0F701E10FF11D80838D3011F4108255
S113020005C08A30E1F31F5F103241F7F701E10FB7
S1130210F11D8081882359F0103219F08EEC9DE194
S113022002C08EED9DE19DDF80E091E002C0CE0131
S11302309927DF91CF911F91FF90EF900895EF924E
S1130240FF920F931F93CF93DF937C01EB01022F57
S11302504B7F55274134510531F4DC018C9159DF32
S1130260CE01E8D12AC088818A3309F4219660E25C
S113027070E0CE0136DB982FFE01DE0110E0191785
S1130280B8F42D912A3311F01F5FF9CF412F60E0AC
S1130290CE01D4D387FD09C0202F30E0482F082E8B
S11302A0000C550B421753071CF180EC9DE104C070
S11302B0883028F480E690E054DF81E039C027E0FC
S11302C030E0419150E081E090E04133510514F475
S11302D080E090E0022E01C0880F0A94EAF7D7016B
S11302E09C91892B8C932150310958F780E020C0D0
S11302F01F5FC10FD11D9881F7014081903371F4C4
S113030021E030E0F90102C0EE0FFF1F8A95E2F709
S1130310CF0180958423D7018C93E8CF21E030E08E
S113032001C0220F8A95EAF7242BF7012083DECF40
S1130330DF91CF911F910F91FF90EF9008950F934C
S11303401F93CF93DF93062F282F30E0C1E0D0E036
S113035002C0CC0FDD1F8A95E2F78091310190E055
S11303608C239D2311E0181619060CF010E0602F61
S1130370612746E0429FC001439F900D1124885C91
S11303809E4F38D180913001011711F0C82B02C063
S1130390C095C823C0933001DF91CF911F910F9175
S11303A008957F928F929F92AF92BF92CF92DF92E5
S11303B0EF92FF920F931F93CF93DF93CDB7DEB7E6
S11303C069970FB6F894DEBF0FBECDBFC12C30E3E2
S11303D0D32E01E010E020ED722E7D0C80912F01D0
S11303E0781608F0C6C08C2D90E081519F4FDC0137
S11303F02C91283209F0B9C0BE016F5E7F4F29D31A
S11304009E012F5E3F4F99E0E0E0915099F0D901B1
S11304108D919D01E827AE2FAF70B0E0AD58BF4F6E
S11304204C91E295EF70F0E0ED57FF4F8081E42F9F
S1130430E827EBCF898D8E1319C06A8970E0762F77
S11304406627770F770F770F8989B8E08B9FC001F4
S11304501124682B792B072E000C880B990B5CDB7D
S113046020E030E040E05CE3E3DB04C060E070E007
S113047088E493E41EDB4B015C01CB0182589F4F5F
S11304808D3F910508F050C0E72DF0E0E951FF4F92
S113049080822091E600022E000C330B80918201B1
S11304A0780102C0EE0CFF1C7A94E2F72815390596
S11304B0DCF490E08E219F21892B09F056C08AEB51
S11304C090E0B8D08D2DA5D08AE3A3D04AE0BE0138
S11304D06F5F7F4FC40110DAADD083E990E0AAD0FA
S11304E080918201E82A1DC0FF2490E08E219F2183
S11304F0892B09F43AC08FEB90E09CD08D2D89D0E4
S11305008AE387D04AE0BE016F5F7F4FC401F4D90C
S113051091D083E990E08ED0E094F09480918201B0
S1130520E822E092820121C0E6EAFDE184917F01A4
S11305302FEFE21AF20A882319F06BD0F701F6CFF5
S11305404AE0BE016F5F7F4FC401D6D973D080E407
S113055060D0E72DF0E0EE0FFF1FEB50F24E8591D7
S1130560949173D083E990E065D0D39488E0C80E69
S113057032CF9DD269960FB6F894DEBF0FBECDBFC1
S1130580DF91CF911F910F91FF90EF90DF90CF906B
S1130590BF90AF909F908F907F9008951F920F927D
S11305A00FB60F9211248F939F9312BE8091C800AF
S11305B09091C90001969093C9008093C8009F91BF
S11305C08F910F900FBE0F901F9018950F931F934C
S11305D0CF93DF938C0185E571DDE801085F1F4F40
S11305E089916CDDC017D107D9F7DF91CF911F91A5
S11305F00F910895DC01ED91FC91119712968C9165
S11306009181662311F0892B02C08095892381830F
S113061008959091C7009F5F9F732091C600921721
S1130620E1F3E92FF0E0EC55FE4F80839093C7008F
S1130630559A0895CF93DF93EC018991882311F0A3
S1130640E8DFFBCFDF91CF910895CF93DF93CDB750
S1130650DEB761970FB6F894DEBF0FBECDBF198A1F
S113066040E150E0BC01CE01019679D9CE0101965A
S1130670E1DF61960FB6F894DEBF0FBECDBFDF9108
S1130680CF9108959091C5008091C4009817B1F05E
S11306908091A3011092A3019091C4009F5F9F7168
S11306A09093C400E091C400F0E0ED57FE4F208128
S11306B090E0982F8827820F911D089580E091E0A3
S11306C008951F920F920FB60F9211248F939F9348
S11306D0EF93FF939091C7008091C600981761F043
S11306E0E091C600EF5FEF73E093C600F0E0EC55D5
S11306F0FE4F80818CB901C05598FF91EF919F9175
S11307008F910F900FBE0F901F9018951F920F920C
S11307100FB60F9211242F938F939F93EF93FF9310
S11307208BB19CB18871E091C500EF5FEF712091AE
S1130730C400E21739F0E093C500F0E0ED57FE4F36
S1130740908301C082E09091A301892B8093A3013F
S1130750FF91EF919F918F912F910F900FBE0F906A
S11307601F901895DC01ED91FC91119790811296E0
S11307708C91892B80830895F894809180019091C5
S11307808101F0DF60E0809180019091810132DF8E
S113079080E18A95F1F7A0918001B0918101ED91FA
S11307A0FC911197908112968C9180958923808376
S11307B0E5E3EA95F1F70000A0918001B091810191
S11307C0ED91FC9111973197908112968C91982319
S11307D081E009F480E07894E3EDF0E03197F1F7FB
S11307E000C00000089580FF24C0F89460E0809168
S11307F0800190918101FEDE8091800190918101C0
S1130800B1DF85E38A95F1F70000A0918001B091F2
S11308108101ED91FC911197918112968C91892B14
S1130820818378948BED90E00197F1F700C000008C
S11308300895F89460E08091800190918101DADE5E
S113084080918001909181018DDF83E091E0019797
S1130850F1F700C00000A0918001B0918101ED91F9
S1130860FC911197918112968C91892B81837894B4
S11308709AE19A95F1F700C00895F894A091800147
S1130880B0918101ED91FC911197908112968C9118
S113089080958923808378949DE7915009F44FC013
S11308A08AE08A95F1F700C0A0918001B09181019E
S11308B0ED91FC9111973197208112968C918223AE
S11308C061F3F89460E0809180019091810192DE5F
S11308D0809180019091810145DF7894EFECF7E0FD
S11308E03197F1F700C00000F894A0918001B09115
S11308F08101ED91FC911197908112968C918095D4
S11309008923808387EC90E00197F1F700C0000011
S1130910A0918001B0918101ED91FC9111973197E3
S1130920908112968C91982381E009F080E078946C
S1130930E7E6F6E03197F1F700C00000089583E0A0
S113094008956F927F928F929F92AF92BF92CF92AF
S1130950DF92EF92FF920F931F93CF93DF93A42E16
S1130960EC01C60FD11D88818D3221F421967724A4
S1130970739404C08B3209F42196712CFE01B12CBE
S1130980BA1429F081918E3211F0B394F9CF83E037
S11309908B1518F42196BA94FACF8B2C912C8A2DAE
S11309A090E08819990905971CF034E0A32EAB0C4C
S11309B000E010E0C12CD12C76010A1560F5B016C8
S11309C031F1688170E060537109072E000C880BC7
S11309D0990BA2D80B1518F0E2E0F0E002C0E3E0B6
S11309E0F0E0E00FF11FE819F909EE0FFF1FEE0F19
S11309F0FF1FEA5AFF4F259135914591549118D91B
S1130A009B01AC01C701B601F0D76B017C010F5FFC
S1130A101F4F2196D2CFC701B60171109058DF91B4
S1130A20CF911F910F91FF90EF90DF90CF90BF90E7
S1130A30AF909F908F907F906F900895442311F012
S1130A4080DF04C060E070E080EC9FE732D8862F3E
S1130A500895CF92DF92EF92FF920F931F93CF935B
S1130A60DF93EC018B0109DFCE01B0DD8EEB26DBD9
S1130A70E801680189E0C80ED11C88E0E82EF12C59
S1130A8010E001E079DE8111102B000F81E0E81AFB
S1130A90F108C1F71993CC16DD0679F7DF91CF91F0
S1130AA01F910F91FF90EF90DF90CF90E6CEE5DE9F
S1130AB08CEC04DB84E402CBCF93DF93CDB7DEB7B9
S1130AC0A3970FB6F894DEBF0FBECDBFA8959EE0E6
S1130AD088E10FB6F894A89581BD0FBE91BD85E05D
S1130AE083BF12BE81E089BF789408E311E086E5F4
S1130AF0E82E81E0F82EC80135DE0A5F1F4FE016AC
S1130B00F106C9F780E090E03AD7813009F069C076
S1130B108BE090E034D78093DD008CE090E02FD719
S1130B208093DE0082E090E02AD70FD68DE090E03B
S1130B3026D78093DF008EE090E021D780933101A7
S1130B40B3E0EB2EB0E0FB2E06ED10E0C70117D7A3
S1130B50D8018D938D01BFEFEB1AFB0AE0E00D3D48
S1130B601E07A1F781E090E00AD78093E6008AE0AF
S1130B7090E005D78093E0001092C7001092C60061
S1130B801092C5001092C40010BC87E689B988E9A8
S1130B908AB986E880BD86E990E04CDD8FE790E075
S1130BA054DD83E990E046DDA89582E391E09093DB
S1130BB0810180938001E0913201F09133019081B1
S1130BC0809134018095892380831092D300109200
S1130BD0D200A2EDAA2EA0E0BA2E8AEC90E0F50194
S1130BE018C003E010E0FAE0EF2EF0E0FF2E6FEF04
S1130BF0C801DCD60F5F1F4FE016F106C1F76FEF97
S1130C008AE090E0D3D661E080E090E0E0D6F8940A
S1130C10FFCF12928E179F07E1F7912CEFEECE2EA5
S1130C20E0E0DE2E772473948091D200811103C01A
S1130C3024DE81110AC01092D3001092D200909247
S1130C402F01F12C7FE1E72E48C080EF37DA11E065
S1130C50E12C812C01E090DDF82E8EDDF1E0FF1215
S1130C6003C08130A9F42FC0EE2DF0E0F8121AC0B1
S1130C708091D300081738F4DF01A653BF4F8C913D
S1130C80812331F402C0801719F0F12C802E0AC0A0
S1130C90EE2DF0E0E653FF4F8081812B8083FF240B
S1130CA0F39407C0E653FF4F9081812F80958923E9
S1130CB080838F2D98DD0F5F110F11F4E39411E001
S1130CC027E02E1540F6013408F4B5CF8092D30006
S1130CD0811028C37092D20025C380912F01F81689
S1130CE040F538E0F39E8001112401511F4FBE01ED
S1130CF06F5F7F4FC801ADDEED82BFDDC80166DCEA
S1130D008EE4DCD98B81DAD98C81D8D98D81D6D97E
S1130D10B4DDC8015BDC88E4D1D98FEF99EFA0E0A2
S1130D2081509040A040E1F700C00000A6DDF3949C
S1130D30D4CFA895BCDEBFEFE1EEF4E0B150E040C3
S1130D40F040E1F700C00000A89581E02ADB2FEF16
S1130D5031EE84E0215030408040E1F700C00000D3
S1130D60EE24E394F12C6AE0862E912CA8958091D0
S1130D70E5008823D1F08091C8009091C9002091AA
S1130D80E3003091E400821B930B8539964D08F4FF
S1130D9091C01092E50086E990E04CDC8FE790E08A
S1130DA054DC83E990E046DC85C04091DF0050E0EC
S1130DB0E6E5F1E020E030E080E0A081B181119728
S1130DC0AC91B701022E02C0660F771F0A94E2F7B6
S1130DD08A0106231723B1E0101611060CF0B0E0C7
S1130DE092819A23A1E009F4A0E0BA13862B2F5F25
S1130DF03F4F36962730310501F78093D500909107
S1130E00DD00382E39264090D400432446EDA42E2C
S1130E1040E0B42E00E010E0512C632C712C0AA3A6
S1130E20202E1BA36701002E02C0CC0CDD1C0A94EB
S1130E30E2F7C2018C219D21892B69F1C620D720BC
S1130E40C114D10419F08CEB90E002C081EC90E065
S1130E50F1DB4AE0BE016F5F7F4F822D9BA14CD531
S1130E60E9DB83E990E0E6DBF5018081853098F4E5
S1130E70C114D10409F068C22091DE0030E0A7015A
S1130E80082E02C0440F551F0A94E2F72423352389
S1130E90232B09F459C20F5F1F4FAFEFAA1ABA0AE6
S1130EA00730110509F0BBCF3092D400A89580E03B
S1130EB078DAA895E7DBFC018115914009F403C2B7
S1130EC08091C8009091C9009093E2008093E10062
S1130ED08FE99FE00197F1F700C000008E2F90E0AA
S1130EE0FC01E154F109E831F10508F0EAC1ED5ED5
S1130EF0FF4F099489E990E09DDB9091E50081E042
S1130F0089278093E500882359F08091C800909147
S1130F10C9009093E4008093E30081EA9DE1CDC190
S1130F208BE99DE1CAC18CE89DE184DB9FEFA1EED2
S1130F30B4E09150A040B040E1F700C00000F89444
S1130F40FFCF86E990E076DB8FE790E07EDBB6C1E9
S1130F508CE990E06FDB0FE010E0C80176DB005F06
S1130F601F4FE0E00F371E07C1F7A8C18FE990E0DB
S1130F7061DB8FE99FE00197F1F700C0000082DB9D
S1130F808A3399F409C2AFE9BFE01197F1F700C0C1
S1130F90000078DB182FEFE9FFE03197F1F700C08C
S1130FA0000070DB8A3309F41FC28FEA9DE15EC141
S1130FB082EA90E03FDBCE010196EAD8AC018115CC
S1130FC0B1E09B0709F47AC18F3471F425E0BE01C6
S1130FD06F5F7F4F81E391E032D981116FC16091DE
S1130FE031018EE090E066C127E0BE016F5F7F4F64
S1130FF08FED90E024D9811161C16091DF008DE013
S113100090E058C185EA90E015DBCE010196C0D886
S11310108115E1E09E0709F451C125E0AC01BE0150
S11310206F5F7F4F8EED90E00AD9811147C16091C7
S1131030DE008CE090E03EC188EA90E0FBDACE016D
S11310400196A6D88115F1E09F0709F437C127E07E
S1131050AC01BE016F5F7F4F8DED90E0F0D8811140
S11310602DC16091DD008BE090E024C18BEA90E01B
S1131070E1DACE0101968CD8811521E0920709F4BA
S11310801DC16C01DD248B7F99278134910569F59D
S113109006ED10E09E012F5F3F4F81E3D82E9DE2C5
S11310A0C92E4CE2D8018D918D01F901319687FF4B
S11310B003C0D901CC920FC08A301CF0D901DC9254
S11310C09F01F9013196082E000C990BB40113D637
S11310D0805DD9018C939F012F5F3F4F4083B0E027
S11310E00D3D1B07F9F6108243C060E270E0CE01AB
S11310F00196F7D3182FFE01319640E0411740F4D2
S11311008191BB24B394B40E8A3329F04B2DF6CFCE
S11311108EE69DE1ABC0E3E4CE16D104D9F5E1E05F
S1131120F0E0EC0FFD1FEB0DF11D80818B7F81340E
S113113011F58091E00087FF06C08DE289839E014E
S11311402E5F3F4F13C08A302CF091E39983FE0148
S1131150329602C0FE0131969F012F5F3F4F082E49
S1131160000C990BB401C7D5805D8083D9011C9212
S1131170CE010196A2C0412F4B196B2DCE010196D1
S11311805DDC853008F08FEF8093E000682F8AE003
S113119090E090C060E0CE01019650DC082F8730CB
S11311A008F4C8C180EC9DE161C08EEA90E042DAA7
S11311B0CE010196EDD78C018115914009F47EC0D2
S11311C089818A3319F4CE0101964ED260E270E02F
S11311D0CE01019686D341E050E04C0F5D1F480FCD
S11311E0511DCE010196FC018417950708F0B8C182
S11311F00196208120532A30B0F381E69DE136C068
S113120081EB90E017DACE010196C2D78115E1E0B7
S11312109E0709F453C0853441F482E090E0AFD3D3
S1131220BE016F5F7F4F75D7A3CF89818A3319F4CD
S1131230CE01019619D260E270E0CE01019651D33D
S1131240FE01319600E0081778F491919A3311F079
S11312500F5FF9CF402F60E0CE010196EFDB182F2E
S1131260853008F09FCFABC180E59DE17AD726C0D9
S113127084EB90E0DFD9CE0101968AD78115F1E0A5
S11312809F07E1F08B7F99278134910559F4809170
S1131290E6004AE0BE016F5F7F4F082E000C990BF9
S11312A02BD366CFCE010196C9D18093E600682F77
S11312B081E090E07BD380E790E0BCD983E990E0C3
S11312C0B9D9A89525C08091E000853008F5209112
S11312D0C8003091C9004091E1005091E200241B04
S11312E0350B2539364DA0F02091C8003091C90046
S11312F03093E2002093E10061E021D88FE39CE980
S11313000197F1F700C0000060E08091E00017D879
S11313109FEFA3ECB9E09150A040B040E1F700C0CA
S1131320000024CD8091CA00882309F484CCD6011E
S1131330EAECF0E081918D93AE16BF06D9F7E8E0B0
S1131340CE0ED11C939470CC4091D5009091DD00C9
S1131350492750E0E6EDF0E020E030E09AA1921752
S113136079F0908189130CC0B701022E02C0660F78
S1131370771F0A94E2F764237523672B09F08BCD5A
S11313802F5F3F4F31962730310541F761E0CD287B
S113139009F460E0D4D77FCD8FE99FE00197F1F79E
S11313A000C000006FD9082FAFE9BFE01197F1F733
S11313B000C000008B7F813491F464D98A3309F42E
S11313C0E2CDC2D687E389838CE28A8395E39B834B
S11313D08C8380912F01805D8D831E82C9CE52D96A
S11313E08A3309F0E2CD3BC0BE016F5D7F4FCE0171
S11313F0019664D1811162CF8FE99FE00197F1F7E3
S113140000C0000054D28A3009F43CD9E9A1F0E0CC
S11314101F3451F0143591F4EE0FFF1FEB50F24ED0
S113142085919491BC0115C026E02E9FC0012F9F89
S1131430900D1124FC01E85CFE4F09C026E02E9FAC
S1131440C0012F9F900D1124FC01EA5AFE4F6381C5
S1131450748140E150E0CE01019681D289CEBE0173
S11314606F5D7F4FCE01019629D1811127CF89A1CC
S1131470803108F097CEEFE9FFE03197F1F700C033
S1131480000000D99E012F5F3F4F690110E08D30AD
S1131490B1F08115A1E09A0791F01F5FF6018193E5
S11314A06F01103121F48AE79DE15BD608C08FE912
S11314B09FE00197F1F700C00000E4D8E8CFAFE95E
S11314C0BFE01197F1F700C00000F1D18A3009F4B0
S11314D0D9D8E1E0F0E0EC0FFD1FE10FF11D10821F
S11314E01F5F412F50E0E9A1F0E00F3451F00435C3
S11314F091F4EE0FFF1FEB50F24E85919491BC01D5
S113150015C026E02E9FC0012F9F900D1124FC01D1
S1131510E85CFE4F09C026E02E9FC0012F9F900D6E
S11315201124FC01EA5AFE4F63817481CE010196B5
S11315302ED2C1CE412F4B196B2DCE0101967EDAEE
S1131540853060F4202F000F330BF901EA52FF4F6E
S11315508083682FC9018D5F9F4FACCE8FEFF2CF90
S11315600435E1F4CE01019669D020912F0187FD65
S113157019CE082E000C990B30E0821793070CF05B
S113158011CEFC01E951FF4F80814AE0BE016F5F3B
S11315907F4F082E000C990BAFD18FCEBE016F5F29
S11315A07F4F8091D500B5D5CE01019643D88AE30B
S11315B030D8BE016F5F7F4F8091300134CEE2E0BE
S11315C0F0E0EC0FFD1FE00FF11D8081813391F1FC
S11315D060F4803389F1C70101C0880F1A95EAF7D6
S11315E0909130018927B1D066CE8634F1F401E0C0
S11315F060E0812FA4D6002309F45DCE82E090E060
S1131600BED1B70102C0660F771F1A95E2F7209189
S1131610300130E026233723232B11F0682B02C03E
S11316206095682382E090E045CE8E34A1F601E017
S113163061E0DFCF00E0FCCF00E0DACFCF93DF93AF
S1131640EC0160E270E04DD1882329F0482F60E07E
S1131650CE0177D904C060E070E080EC9FE729D226
S1131660862FDF91CF910895CF93DF93FC010190F2
S11316700020E9F731979F01281B390B622FDC0109
S11316801196FC01A90155277E2F781B761768F463
S1131690ED01C81BD90BC417D5071CF47C917083CA
S11316A001C0108211963196EFCFFC01E40FF51FB3
S11316B010828FEF820FDF91CF9108950F931F93C4
S11316C0CF93DF93EC018B018FE99FE00197F1F752
S11316D000C00000D7D78883EFE9FFE03197F1F726
S11316E000C00000CFD789838A3311F08D3029F4EC
S11316F088818053F80180831CC08FE99FE00197A3
S1131700F1F700C00000BED78A3329F08FEA9DE1CB
S113171028D581E015C01A8260E270E0CE01E1D0E4
S1131720882349F0482F60E0CE010BD9C2D1F801DB
S1131730608380E005C060E070E080EC9FE7F6CF56
S1131740DF91CF911F910F910895BF92CF92DF92B5
S1131750EF92FF920F931F93CF93DF93B82E88E3FA
S1131760C82E81E0D82EC0E0D0E001E010E0EB2CE0
S1131770F12C98010C2E02C0220F331F0A94E2F7B9
S11317808091310190E08223932361E018161906B9
S11317900CF060E02E213F2181E0121613060CF0BC
S11317A080E06827C60126D7219686E0C80ED11CA2
S11317B0C530D105F1F6B0923001DF91CF911F9180
S11317C00F91FF90EF90DF90CF90BF900895E6E5E2
S11317D0F1E084E390E09183808361E0628320EC14
S11317E031E0348323839783868322E0208720EBB0
S11317F031E0328721879587848754E0568720EA31
S113180031E0308B2787938B828B28E0248B20E96F
S113181031E0368B258B918F808F40E1428F20E819
S113182031E0348F238F978F868F20E220A380E7C7
S113183091E092A381A381E390E095A384A326A3DE
S113184020E631E030A727A3E8E3F1E027E330E026
S1131850318320834283A0E5B1E0B483A38337833B
S11318602683608760E471E0728761879587848747
S113187060E8668760E371E0708B6787938B828B87
S113188060E4648B60E271E0768B658B918F808F6E
S1131890428F80E191E0948F838FE2E3F1E0318322
S11318A02083528380E091E0948383830895909110
S11318B0C5008091C400981789F08091A301E0913C
S11318C0C400F0E03196EF71FF27ED57FE4F208101
S11318D090E0982F8827820F911D089580E091E071
S11318E00895FC016150704001900110D8F7809573
S11318F090958E0F9F1F0895BB274A3031F499238A
S113190022F4BDE2909581959F4F01C0BB27FB0156
S11319105527AA27880F991FAA1FA41710F0A41BE4
S113192083955051B9F7A05DAA3308F0A95DA1933E
S1131930009779F7B111B1931192CB0100C0DC018A
S1131940FC01672F71917723E1F7329704C07C91F2
S11319506D9370836291AE17BF07C8F30895DC01DD
S1131960CB01FC01E199FECF06C0FFBBEEBBE09AC0
S113197031960DB20D9241505040B8F70895E19957
S1131980FECF9FBB8EBBE09A99278DB30895DC01EF
S1131990A40FB51F4150504040F0CB01840F951F58
S11319A02E9105D041505040D8F70895262FE19943
S11319B0FECF9FBB8EBBE09A01970DB2021631F0A9
S11319C02DBB0FB6F894E29AE19A0FBE0895262F24
S11319D0E199FECF9FBB8EBB2DBB0FB6F894E29A64
S11319E0E19A0FBE019608955058BB27AA270ED03E
S11319F0E5C0D6D030F0DBD020F031F49F3F11F4B5
S1131A001EF4CBC00EF4E095E7FBC1C0E92FE7D08C
S1131A1080F3BA17620773078407950718F071F407
S1131A209EF5FFC00EF4E0950B2EBA2FA02D0B01EE
S1131A30B90190010C01CA01A0011124FF27591B0F
S1131A4099F0593F50F4503E68F11A16F040A22F15
S1131A50232F342F4427585FF3CF46953795279586
S1131A60A795F0405395C9F77EF41F16BA0B620B85
S1131A70730B840BBAF09150A1F0FF0FBB1F661FCC
S1131A80771F881FC2F70EC0BA0F621F731F841F0F
S1131A9048F4879577956795B795F7959E3F08F035
S1131AA0B3CF9395880F08F09927EE0F97958795F4
S1131AB0089504D06894B111B5C0089598D088F001
S1131AC09F5790F0B92F9927B751A0F0D1F0660F26
S1131AD0771F881F991F1AF0BA95C9F712C0B13041
S1131AE081F09FD0B1E008959CC0672F782F88279C
S1131AF0B85F39F0B93FCCF3869577956795B39580
S1131B00D9F73EF490958095709561957F4F8F4FEE
S1131B109F4F0895E89409C097FB3EF490958095F3
S1131B20709561957F4F8F4F9F4F9923A9F0F92F9F
S1131B3096E9BB279395F695879577956795B7951D
S1131B40F111F8CFFAF4BB0F11F460FF1BC06F5F03
S1131B507F4F8F4F9F4F16C0882311F096E911C015
S1131B60772321F09EE8872F762F05C0662371F036
S1131B7096E8862F70E060E02AF09A95660F771F4A
S1131B80881FDAF7880F9695879597F9089597F93E
S1131B909F6780E870E060E008959FEF80EC08950F
S1131BA000240A9416161706180609060895002438
S1131BB00A9412161306140605060895092E0394B2
S1131BC0000C11F4882352F0BB0F40F4BF2B11F426
S1131BD060FF04C06F5F7F4F8F4F9F4F089557FD85
S1131BE09058440F551F59F05F3F71F04795880F87
S1131BF097FB991F61F09F3F79F08795089512161E
S1131C0013061406551FF2CF4695F1DF08C01616C9
S1131C1017061806991FF1CF86957105610508947A
S1131C200895E894BB2766277727CB0197F9089591
S1131C300BD0C4CFB5DF28F0BADF18F0952309F034
S1131C40A6CFABCF1124EECFCADFA0F3959FD1F37B
S1131C50950F50E0551F629FF001729FBB27F00D56
S1131C60B11D639FAA27F00DB11DAA1F649F6627AB
S1131C70B00DA11D661F829F2227B00DA11D621FFA
S1131C80739FB00DA11D621F839FA00D611D221FB4
S1131C90749F3327A00D611D231F849F600D211D98
S1131CA0822F762F6A2F11249F5750408AF0E1F03B
S1131CB088234AF0EE0FFF1FBB1F661F771F881F84
S1131CC091505040A9F79E3F510570F060CFAACFC4
S1131CD05F3FECF3983EDCF3869577956795B7956F
S1131CE0F795E7959F5FC1F7FE2B880F911D969599
S1131CF0879597F9089597FB072E16F4009406D05C
S1131D0077FD08D00BD007FC05D03EF49095819563
S1131D109F4F0895709561957F4F0895AA1BBB1B33
S1131D2051E107C0AA1FBB1FA617B70710F0A61BD7
S1131D30B70B881F991F5A95A9F780959095BC01F8
S1131D40CD010895EE0FFF1F0590F491E02D099445
S1131D504D697373696E6720617267756D656E7422
S1131D60004F7574206F662072616E6765004E6F58
S1131D7020617267756D656E7400546F6F206C6FAF
S1131D806E6720617267756D656E7400413A5265C5
S1131D9073657474696E672E2E2E0046616C7365CC
S1131DA0005472756500453A54656D702E20004DDF
S1131DB0697373696E6720617267756D656E74000F
S1131DC0496C6C6567616C20696E646578004E6F60
S1131DD02043524C46206F72204E554C4C00496EA5
S1131DE070757420746F6F206C6F6E67004E6F2077
S1131DF06461746100F000E000D000C000B000A095
S10C1E000090000001F894FFCFEA
S1131E09546F6F2073686F727420696E70757400F3
S1131E194F4B00005EBCE2613FDD83C29C7E20A380
S1131E29FD1F41009D23BE46DB65F88C11AF32CA04
S1131E3957E9740D0A00503A00583A00483A004CE0
S1131E493A00493A00563A004E3A004D3A00523A9D
S1131E59004F3A00543A00453A00543A413A005482
S1071E693A533A00AA
S9030000FC
