:1000000035C059C058C057C056C055C054C053C061
:1000100052C039C350C03DC417C44DC04CC04BC0C2
:100020004AC049C048C024C97CCA7BCA7ACA79CAB6
:1000300009C9D2C929C959C974CA73CA34C9B7C947
:100040009CC90DCA19C96DCADFC96BCA44CA69CA3D
:100050007AC90000C842000020410000803FCDCC9A
:10006000CC3D0AD7233C6F12833A4D0C11241FBE9E
:10007000CFE5D4E0DEBFCDBF10E0A0E6B0E0E0EB1E
:10008000FEE102C005900D92AE3CB107D9F721E028
:10009000AEECB0E001C01D92A33FB207E1F710E063
:1000A000C6E3D0E003C02197FE01A4DEC533D1072B
:1000B000D1F7C5D5A5CEA4CF0F931F93CF93DF93D0
:1000C000082FC8E0D0E011E081E0902F912309F4DF
:1000D00080E04CD4110F2197B9F7F894A0919001CA
:1000E000B0919101ED91FC911197908112968C91B4
:1000F00080958923808360E08091900190919101A7
:10010000EDD27894DF91CF911F910F910895CF9305
:10011000DF93EC0160E270E030DC882329F0482FA7
:1001200060E0CE01D1D404C060E070E080EC9FE7D5
:100130000CDD862FDF91CF910895CF93DF93FC01E3
:1001400001900020E9F731979F01281B390B622F9E
:10015000DC011196FC01A90155277E2F781B76172B
:1001600068F4ED01C81BD90BC417D5071CF47C91AA
:10017000708301C0108211963196EFCFFC01E40F1D
:10018000F51F10828FEF820FDF91CF910895FB0151
:1001900027E030E0A1E0B0E090E0AD01022E02C027
:1001A000440F551F0A94E2F748235923452B11F4B5
:1001B00040E301C041E341932150310970F7FB0155
:1001C000108608958FEF9CE70197F1F700C00000BB
:1001D00009D38115914029F08FE39FE10197F1F751
:1001E000F5CF0895CF93DF93EC018AEC90E0A4D291
:1001F000CE0194D283E990E09FD2DF91CF91E2CFFC
:10020000EF92FF921F93CF93DF937C01EBD2EC012F
:100210008FE99FE00197F1F700C00000CA3311F4A5
:10022000E1D2EC01C115E1E0DE0719F484E99EE1B9
:1002300036C08C2F9C2F90539A3018F09D5F9230CF
:1002400020F4F701808311E001C010E08FE39FE10B
:100250000197F1F700C00000C5D28115E1E09E07CB
:1002600089F0F701E10FF11D80838D3031F41082A8
:100270009FD28A3039F4B6D205C08A30C1F31F5FED
:10028000103221F7F701E10FF11D8081882359F029
:10029000103219F085E79EE102C085E89EE1A2DFF9
:1002A00080E091E002C0CE019927DF91CF911F91AC
:1002B000FF90EF9008959F92AF92BF92CF92DF92FE
:1002C000EF92FF920F931F93CF93DF937C01962EB3
:1002D000EA0168015901BB2481E4A816B104F9F4CC
:1002E0003E2DD701FA014AE02CE251E31DE28A2FAC
:1002F000831B891590F48D9187FF02C0108308C07D
:100300008A3014F050833196642F41DD905D9083E4
:10031000CF0102962183FC01EACF319739C060E218
:1003200070E0CA012ADB082FFE0110E0101728F444
:1003300081918A3329F01F5FF9CF89E69EE149C098
:10034000E3E4AE16B104A9F561E0610FFE01E60F2A
:10035000F11D8081813401F580918F0187FF06C0F6
:100360009E012F5F3F4F8DE2888311C0FE018A30CE
:100370001CF0319691E398839F012F5F3F4F082E29
:10038000000C990B6AE070E00EDD805D8083F9015E
:100390001082CE01D1D11EC0402F461BCE0111D4F8
:1003A000853008F08FEF80938F01682F87ED91E003
:1003B00024C0412F60E0CE0104D487FD08C0A82EE0
:1003C000880FBB08692D70E0A616B7062CF08BE5E8
:1003D0009EE108DF81E013C061E0610F402F461B02
:1003E000CE01EFD3853008F08FEFF701EA0DFB1D4A
:1003F0008083682FC6018A0D9B1D24DB80E0DF917E
:10040000CF911F910F91FF90EF90DF90CF90BF9011
:10041000AF909F900895EF92FF920F931F93CF9309
:10042000DF937C01EB01022F413431F4DC018C912C
:10043000AEDECE0181D12AC088818A3309F42196AB
:1004400060E270E0CE0199DA982FFE01DE0110E043
:100450001917B8F42D912A3311F01F5FF9CF412FEE
:1004600060E0CE01AED387FD09C0202F30E0482FD9
:10047000082E000C550B421753071CF18BE59EE12B
:1004800004C0883028F480E690E0ACDE81E039C01A
:1004900027E030E0419150E081E090E041335105A8
:1004A00014F480E090E0022E01C0880F0A94EAF76D
:1004B000D7019C91892B8C932150310958F780E00A
:1004C00020C01F5FC10FD11D9881F701408190337B
:1004D00071F421E030E0F90102C0EE0FFF1F8A95B0
:1004E000E2F7CF0180958423D7018C93E8CF21E0F8
:1004F00030E001C0220F8A95EAF7242BF701208310
:10050000DECFDF91CF911F910F91FF90EF90089573
:100510000F931F93CF93DF93EC018B018FE99FE043
:100520000197F1F700C000005DD18883EFE9FFE09B
:100530003197F1F700C0000055D189838A3311F05B
:100540008D3029F488818053F80180831CC08FE9A5
:100550009FE00197F1F700C0000044D18A3329F0F1
:100560008AE49EE13FDE81E015C01A8260E270E01D
:10057000CE0103DA882349F0482F60E0CE01A4D2EF
:10058000E4DAF801608380E005C060E070E080ECB0
:100590009FE7F6CFDF91CF911F910F9108950F93B1
:1005A0001F93CF93DF93062F282F30E0C1E0D0E0D8
:1005B00002C0CC0FDD1F8A95E2F78091400190E0E8
:1005C0008C239D2311E0181619060CF010E0602F03
:1005D000612746E0429FC001439F900D1124895B33
:1005E0009E4F7CD080913F01011711F0C82B02C0B3
:1005F000C095C823C0933F01DF91CF911F910F9108
:100600000895BF92CF92DF92EF92FF920F931F93C4
:10061000CF93DF93B82E87E4C82E81E0D82EC0E0B8
:10062000D0E001E010E0EB2CF12C98010C2E02C080
:10063000220F331F0A94E2F78091400190E0822359
:10064000932361E0181619060CF060E02E213F217B
:1006500081E0121613060CF080E06827C6013ED038
:10066000219686E0C80ED11CC530D105F1F6B092B6
:100670003F01DF91CF911F910F91FF90EF90DF909D
:10068000CF90BF9008951F920F920FB60F92112432
:100690008F939F938091D2009091D3000196909375
:1006A000D3008093D2009F918F910F900FBE0F9037
:1006B0001F9018950F931F93CF93DF938C0185E5BF
:1006C000FBDCE801085F1F4F8991F6DCC017D107FA
:1006D000D9F7DF91CF911F910F910895DC01ED9132
:1006E000FC91119712968C919181662311F0892BC0
:1006F00002C080958923818308959091D1009F5FE6
:100700009F732091D0009217E1F3E92FF0E0ED54B0
:10071000FE4F80839093D100559A0895CF93DF9335
:10072000FC018491EF012196882319F0E6DFFE0198
:10073000F8CFDF91CF910895CF93DF93EC018991AA
:10074000882311F0DADFFBCFDF91CF910895EF928C
:10075000FF920F931F93CF93DF93CDB7DEB7EDB624
:10076000FEB6462F50E09A012F5F3F4F6DB77EB720
:10077000621B730B0FB6F8947EBF0FBE6DBF0DB733
:100780001EB70F5F1F4FF801E40FF51F1082BC0169
:10079000C80131D9C801D0DF0FB6F894FEBE0FBE34
:1007A000EDBEDF91CF911F910F91FF90EF900895D3
:1007B0009091CF008091CE00981789F08091B2017E
:1007C000E091CE00F0E03196EF71FF27EE56FE4F3C
:1007D000208190E0982F8827820F911D089580E056
:1007E00091E008959091CF008091CE009817B1F0DC
:1007F0008091B2011092B2019091CE009F5F9F71E3
:100800009093CE00E091CE00F0E0EE56FE4F2081B6
:1008100090E0982F8827820F911D089580E091E045
:1008200008959091D1008091D000981739F08FE30E
:100830009CE90197F1F700C00000F3CFF894D2DFF4
:1008400081159140E1F7FFCF1F920F920FB60F92E3
:1008500011248F939F93EF93FF939091D1008091F8
:10086000D000981761F0E091D000EF5FEF73E09354
:10087000D000F0E0ED54FE4F80818CB901C0559856
:10088000FF91EF919F918F910F900FBE0F901F904E
:1008900018951F920F920FB60F9211242F938F93DA
:1008A0009F93EF93FF938BB19CB18871E091CF0040
:1008B000EF5FEF712091CE00E21739F0E093CF00A7
:1008C000F0E0EE56FE4F908301C082E09091B201BD
:1008D000892B8093B201FF91EF919F918F912F917E
:1008E0000F900FBE0F901F901895DC01ED91FC91B9
:1008F0001197908112968C91892B80830895F8949A
:100900008091900190919101F0DF60E080919001E1
:1009100090919101E3DE80E18A95F1F7A091900139
:10092000B0919101ED91FC911197908112968C916B
:10093000809589238083E5E3EA95F1F70000A09193
:100940009001B0919101ED91FC91119731979081B7
:1009500012968C91982381E009F480E07894E3ED7D
:10096000F0E03197F1F700C00000089580FF24C047
:10097000F89460E08091900190919101AFDE8091B8
:10098000900190919101B1DF85E38A95F1F7000024
:10099000A0919001B0919101ED91FC9111979181FD
:1009A00012968C91892B818378948BED90E001973E
:1009B000F1F700C000000895F89460E08091900184
:1009C000909191018BDE80919001909191018DDF4A
:1009D00083E091E00197F1F700C00000A091900141
:1009E000B0919101ED91FC911197918112968C91AA
:1009F000892B818378949AE19A95F1F700C0089544
:100A0000F894A0919001B0919101ED91FC91119712
:100A1000908112968C9180958923808378949DE7AC
:100A2000915009F44FC08AE08A95F1F700C0A09177
:100A30009001B0919101ED91FC9111973197208136
:100A400012968C91822361F3F89460E0809190017A
:100A50009091910143DE809190019091910145DF49
:100A60007894EFECF7E03197F1F700C00000F894CC
:100A7000A0919001B0919101ED91FC91119790811D
:100A800012968C9180958923808387EC90E0019762
:100A9000F1F700C00000A0919001B0919101ED919B
:100AA000FC9111973197908112968C91982381E057
:100AB00009F080E07894E7E6F6E03197F1F700C0BE
:100AC0000000089583E008956F927F928F929F9225
:100AD000AF92BF92CF92DF92EF92FF920F931F934C
:100AE000CF93DF93A42EEC01C60FD11D88818D32E8
:100AF00021F421967724739404C08B3209F4219653
:100B0000712CFE01B12CBA1429F081918E3211F0B2
:100B1000B394F9CF83E08B1518F42196BA94FACFE9
:100B20008B2C912C8A2D90E08819990905971CF03F
:100B300034E0A32EAB0C00E010E0C12CD12C7601E8
:100B40000A1560F5B01631F1688170E060537109E3
:100B5000072E000C880B990B2BD80B1518F0E2E030
:100B6000F0E002C0E3E0F0E0E00FF11FE819F9095E
:100B7000EE0FFF1FEE0FFF1FEE5AFF4F259135912D
:100B800045915491A1D89B01AC01C701B60179D719
:100B90006B017C010F5F1F4F2196D2CFC701B601B9
:100BA00071109058DF91CF911F910F91FF90EF90AE
:100BB000DF90CF90BF90AF909F908F907F906F907D
:100BC0000895442311F080DF04C060E070E080EC01
:100BD0009FE7BBD7862F0895CF92DF92EF92FF92C7
:100BE0000F931F93CF93DF93EC018B0109DFCE01AD
:100BF00061DD8EEB61DAE801680189E0C80ED11C85
:100C000088E0E82EF12C10E001E079DE8111102B54
:100C1000000F81E0E81AF108C1F71993CC16DD0640
:100C200079F7DF91CF911F910F91FF90EF90DF90B7
:100C3000CF90E6CEE5DE8CEC3FDA84E43DCACF937C
:100C4000DF93CDB7DEB7A9970FB6F894DEBF0FBE1E
:100C5000CDBFA8959EE088E10FB6F894A89581BD18
:100C60000FBE91BD85E083BF12BE81E089BF01E860
:100C7000E02E00E0F02E8AE7C82E80E0D82E86E035
:100C800091E0C9D6813009F049C081E890E0C3D62F
:100C90008093F90082E890E0BED68093FA0081E765
:100CA00090E0B9D6AEDC83E890E0B5D68093FB0047
:100CB00084E890E0B0D6809340011AE7E12E10E07E
:100CC000F12E02EF10E0C701A6D6D8018D938D0159
:100CD000BFEFEB1AFB0AE0E0093F1E07A1F7B2E7FE
:100CE000EB2EB0E0FB2E0AEE10E0C70194D6D8013F
:100CF0008D938D01BFEFEB1AFB0AE0E0023F1E0768
:100D0000A1F780E790E087D68093E00087ED91E03F
:100D100082D680938F0107E411E035C06FEF81E840
:100D200090E090D660E082E890E08CD660E081E7C9
:100D300090E088D660E083E890E084D660E084E8C4
:100D400090E080D60AE710E06FEFC8017BD60F5F16
:100D50001F4FE016F106C1F702E710E06FEFC80180
:100D600071D60F5F1F4FC016D106C1F76FEF87ED29
:100D700091E068D668E280E790E064D661E086E0C2
:100D800091E071D67CCFC801B0DD0A5F1F4FF1E062
:100D900005361F07C1F778941092D1001092D00049
:100DA0001092CF001092CE0010BC87E689B988E976
:100DB0008AB986E880BDA89581E491E0909391017D
:100DC00080939001E0914101F091420190818091E6
:100DD00043018095892380831092DD001092DC000E
:100DE000ACEDAA2EA0E0BA2EF501129220E0E43D6F
:100DF000F207D9F7912CFFEFCF2EF0E0DF2E77240A
:100E000073948091DC00811103C0FADD81110AC066
:100E10001092DD001092DC009092FE00F12CEFE1C8
:100E2000EE2E48C080EF48D911E0E12C812C01E082
:100E300066DDF82E64DD31E0F31203C08130A9F4E1
:100E40002FC0EE2DF0E0F8121AC08091DD000817D7
:100E500038F4DF01AC52BF4F8C91812331F402C0D2
:100E6000801719F0F12C802E0AC0EE2DF0E0EC5224
:100E7000FF4F8081812B8083FF24F39407C0EC52C5
:100E8000FF4F9081812F8095892380838F2D6EDD88
:100E90000F5F110F11F4E39411E087E08E1540F617
:100EA000013408F4B5CF8092DD0081106EC37092DA
:100EB000DC006BC38091FE00F81640F598E0F99EC7
:100EC0008001112401501F4FBE016F5F7F4FC80189
:100ED00083DEED8295DDC801EDDB8EE4EDD88B81FC
:100EE000EBD88C81E9D88D81E7D88ADDC801E2DBB7
:100EF00088E4E2D8AFEFB9EFE0E0A150B040E040C5
:100F0000E1F700C000007CDDF394D4CFA89592DE19
:100F1000FFEF21EE34E0F15020403040E1F700C017
:100F20000000A8954FD986E990E006DC61E185EFE5
:100F300090E00DDC83E990E0FFDBEE24E394F12CFC
:100F4000A8954091FB0050E0E5E6F1E020E030E0BC
:100F500080E0A081B1811197AC91B701022E02C04F
:100F6000660F771F0A94E2F78A0106231723B1E080
:100F7000101611060CF0B0E092819A23A1E009F45A
:100F8000A0E0BA13862B2F5F3F4F369627303105EE
:100F900001F78093E1005090F90058266090DE0040
:100FA000652462EFA62E60E0B62E00E010E0712C02
:100FB000852C912C402E18016701002E02C0CC0C0C
:100FC000DD1C0A94E2F7C3018C219D21892B61F17C
:100FD000C820D920C114D10419F08BE990E002C0D7
:100FE00080EA90E0A9DB4AE0BE016F5F7F4FC1015C
:100FF000CFD4A2DB83E990E09FDBD5018C918530D3
:1010000098F4C114D10409F0D2C22091FA0030E062
:10101000A701082E02C0440F551F0A94E2F72423AB
:101020003523232B09F4C3C20F5F1F4FBFEFAB1A49
:10103000BB0A0730110509F0BDCF5092DE00A8951C
:10104000A12C50E3B52E40EDD42EDB0C8091FE0098
:10105000D81608F0D4C08A2D90E081509F4FFC0133
:101060002081283209F0C7C0BE016F5D7F4FB4DD1B
:101070009E012F5D3F4F99E0E0E0915099F0D9013A
:101080008D919D01E827AE2FAF70B0E0A059BF4F02
:101090004C91E295EF70F0E0E058FF4F8081E42F33
:1010A000E827EBCF89A58E1319C06AA170E0762FCF
:1010B0006627770F770F770F89A1B8E08B9FC00164
:1010C0001124682B792B072E000C880B990B70D5F7
:1010D00020E030E040E05CE3F7D504C060E070E081
:1010E00088E493E432D52B013C01CB0182589F4F19
:1010F0000D2D10E08D3F910508F065C0F801EE510F
:10110000FF4F40822091E000022E000C330B8091B3
:10111000DF00241535055CF5F70102C0EE0FFF1F57
:10112000DA94E2F76F0190E08E239F23892B09F078
:1011300062C089E990E000DB8B2DDFDA8AE3DDDA3B
:101140004AE0BE016F5F7F4FC20122D4F5DA83E926
:1011500090E0F2DA8091DF00C82AC092DF00F80147
:10116000E651FF4F8081853008F045C047C29701A6
:1011700002C0220F331FDA94E2F76901DD2490E008
:101180008C219D21892BB9F18EE990E0D5DA8B2D48
:10119000B4DA8AE3B2DA4AE0BE016F5F7F4FC20180
:1011A000F7D3CADA83E990E0C7DAC094D09480918B
:1011B000DF00C822C092DF00F801E651FF4F8081B6
:1011C0008530C8F41EC280E09EE1A8DA4AE0BE0184
:1011D0006F5F7F4FC201DCD3AFDA80E48EDAF801B3
:1011E000EE0FFF1FE456F14E8591949160E1AFDA66
:1011F00083E990E0A1DAB39438E0A30E24CF1ADD9E
:10120000A895F0DAFC01E11581E0F80709F48BC13B
:101210008091D2009091D3009093FD008093FC00C8
:10122000AFE3BFE11197F1F700C000008E2F90E00F
:10123000FC01E154F109E631F10508F072C1ED5EFF
:10124000FF4F099483EA90E077DACE010196D8D770
:10125000813359F460E086E091E005D480E990E0C4
:101260006BDA83E990E068DA06C086EA90E055C15F
:1012700089E39EE153DAD5DA86E990E05DDA61E14F
:1012800085EF90E064DA4AC18CEA90E055DA05E82F
:1012900010E060E1C8015BDA005F1F4FB0E0053F7E
:1012A0001B07B9F73BC18FEA90E046DAEFE9FFE0B0
:1012B0003197F1F700C0000095DA8A3399F4B3C191
:1012C0008FE99FE00197F1F700C000008BDA182F3B
:1012D000AFE9BFE01197F1F700C0000083DA8A336D
:1012E00009F4C8C18AE49EE1F4C082EB90E024DAFC
:1012F000CE01019685D78115A1E09A0709F40EC1A8
:1013000049814A3309F44A8150E08F3471F425E071
:10131000BE016F5F7F4F80E491E07DD88111FEC0F8
:101320006091400184E890E0F5C027E0BE016F5F66
:101330007F4F8BEF90E06FD88111F0C06091FB0080
:1013400083E890E0E7C085EB90E0F6D9CE01019606
:1013500057D78115B1E09B0709F4E0C025E0AC0147
:10136000BE016F5F7F4F8AEF90E055D88111D6C0E4
:101370006091FA0082E890E0CDC088EB90E0DCD983
:10138000CE0101963DD78115E1E09E0709F4C6C064
:1013900027E0AC01BE016F5F7F4F89EF90E03BD843
:1013A0008111BCC06091F90081E890E0B3C08BEB83
:1013B00090E0C2D9CE01019623D78115F1E09F07B5
:1013C00009F4ACC00AE710E09C01AE014F5F5F4F2B
:1013D00067E082EF90E014C08EEB90E0ADD9CE01D3
:1013E00001960ED7811521E0920709F497C002E714
:1013F00010E09C01AE014F5F5F4F68E08AEE90E025
:101400005AD781118BC087C081EC90E095D9CE016D
:101410000196F6D68C018115914009F47FC089812F
:101420008A3319F4CE01019688D660E270E0CE01CD
:101430000196A3D241E050E04C0F5D1F480F511DB3
:10144000CE010196FC018417950708F0B8C10196FA
:10145000208120532A30B0F38AE19EE13AC084EC27
:1014600090E06AD9CE010196CBD68115A1E09A070A
:1014700009F454C0853451F481E790E0CCD2BE0128
:101480006F5F7F4F84D6CE01019647C089818A3332
:1014900019F4CE01019651D660E270E0CE010196BA
:1014A0006CD2FE01319600E0081788F491919A33CE
:1014B00011F00F5FF9CF402F60E0CE01019681DB84
:1014C000182F853008F4AAC18BE59EE102C089E09F
:1014D0009EE188D623C087EC90E02ED9CE010196FC
:1014E0008FD68115B1E09B07C9F0813459F4809102
:1014F000E0004AE0BE016F5F7F4F082E000C990BA1
:1015000047D2C1CFCE01019602D68093E000682F6A
:1015100080E790E097D280E990E00ED983E990E0EF
:101520000BD9A89528C080918F01853020F5209196
:10153000D2003091D3004091FC005091FD00241B5B
:10154000350B2539364DB8F02091D2003091D300BB
:101550003093FD002093FC0061E021D8EFEFF1EE25
:1015600024E0E150F0402040E1F700C0000060E0DE
:1015700080918F0114D83FEF83EC99E03150804087
:101580009040E1F700C00000DBCC8091D4008823BC
:1015900009F43ECCD601E4EDF0E081918D93AE16D6
:1015A000BF06D9F7A8E0CA0ED11C93942ACC40916B
:1015B000E1009091F900492750E0E2EFF0E020E0EF
:1015C00030E0421679F0908189130CC0B701022EE9
:1015D00002C0660F771F0A94E2F764237523672B16
:1015E00009F022CD2F5F3F4F31962730310549F763
:1015F00061E0CD2809F460E0D2D716CD61E0CFD705
:10160000FACD2091FA00422F50E09701082E02C037
:10161000220F331F0A94E2F724233523232B09F0EA
:10162000EACD60E0ECCFEFE9FFE03197F1F700C0E1
:101630000000D8D8082F8FE99FE00197F1F700C08C
:101640000000013491F4CED88A3309F439CEBAD5EA
:1016500087E389838CE28A8395E39B838C838091E3
:10166000FE00805D8D831E820ECFBCD88A3309F0C8
:1016700039CE3BC0BE016F5D7F4FCE01019648D78A
:1016800081114CCFEFE9FFE03197F1F700C0000086
:101690008FD88A3009F4A6D8E9A1F0E01F3451F0C0
:1016A000143591F4EE0FFF1FE456F14E859194919D
:1016B000BC0115C026E02E9FC0012F9F900D112464
:1016C000FC01E95BFE4F09C026E02E9FC0012F9F61
:1016D000900D1124FC01EB59FE4F6381748140E1B0
:1016E00050E0CE01019687D1CECEBE016F5D7F4F17
:1016F000CE0101960DD7811111CF89A1803108F05B
:10170000E3CEAFE9BFE01197F1F700C000006AD85F
:10171000FE0131966F0110E08D30B1F08115F1E0DE
:101720009F0791F01F5FD6018D936D01103121F459
:1017300087E29EE157D508C0EFE9FFE03197F1F766
:1017400000C000004FD8E8CF8FE99FE00197F1F784
:1017500000C000002DD88A3009F444D8E1E0F0E060
:10176000EC0FFD1FE10FF11D10821F5F412F50E0B4
:10177000E9A1F0E00F3451F0043591F4EE0FFF1FB2
:10178000E456F14E85919491BC0115C026E02E9F40
:10179000C0012F9F900D1124FC01E95BFE4F09C091
:1017A00026E02E9FC0012F9F900D1124FC01EB59C4
:1017B000FE4F63817481CE01019635D1ACCE0435E4
:1017C000E1F4CE010196A3D487FD7ECE082E000C55
:1017D000990B2091FE0030E0821793070CF074CE35
:1017E000FC01EE51FF4F80814AE0BE016F5F7F4FE9
:1017F000082E000C990BCCD090CEBE016F5F7F4FAE
:101800008091E100C4D4CE01019696D78AE375D7C2
:10181000BE016F5F7F4F80913F0134CEE2E0F0E088
:10182000EC0FFD1FE00FF11D8081813391F160F419
:10183000803389F1C70101C0880F1A95EAF79091AA
:101840003F018927DED667CE8634F1F401E060E0FF
:10185000812FA5D6002309F45ECE81E790E0DBD08E
:10186000B70102C0660F771F1A95E2F720913F017A
:1018700030E026233723232B11F0682B02C060951C
:10188000682381E790E046CE8E34A1F601E061E066
:10189000DFCF00E0FCCF00E0DACFE5E6F1E084E363
:1018A00090E09183808361E0628327EC31E03483B0
:1018B00023839783868322E0208727EB31E03287DA
:1018C00021879587848754E0568727EA31E0308B5B
:1018D0002787938B828B28E0248B27E931E0368B96
:1018E000258B918F808F40E1428F27E831E0348F44
:1018F000238F978F868F20E220A387E791E092A322
:1019000081A381E390E095A384A326A327E631E099
:1019100030A727A3E7E4F1E027E330E03183208319
:101920004283A7E5B1E0B483A3833783268360872E
:1019300067E471E0728761879587848760E86687CE
:1019400067E371E0708B6787938B828B60E4648BB5
:1019500067E271E0768B658B918F808F428F87E194
:1019600091E0948F838FE1E4F1E03183208352830F
:1019700087E091E0948383830895FC016150704077
:1019800001900110D8F7809590958E0F9F1F0895B4
:10199000BB274A3031F4992322F4BDE2909581951A
:1019A0009F4F01C0BB27FB015527AA27880F991F0E
:1019B000AA1FA41710F0A41B83955051B9F7A05D7E
:1019C000AA3308F0A95DA193009779F7B111B193FB
:1019D0001192CB0100C0DC01FC01672F71917723CC
:1019E000E1F7329704C07C916D9370836291AE17DA
:1019F000BF07C8F30895DC01CB01FC01E199FECFDC
:101A000006C0FFBBEEBBE09A31960DB20D9241507D
:101A10005040B8F70895E199FECF9FBB8EBBE09A86
:101A200099278DB30895DC01A40FB51F4150504094
:101A300040F0CB01840F951F2E9105D041505040AE
:101A4000D8F70895262FE199FECF9FBB8EBBE09A71
:101A500001970DB2021631F02DBB0FB6F894E29A41
:101A6000E19A0FBE0895262FE199FECF9FBB8EBB52
:101A70002DBB0FB6F894E29AE19A0FBE0196089535
:101A80005058BB27AA270ED0E5C0D6D030F0DBD007
:101A900020F031F49F3F11F41EF4CBC00EF4E0951A
:101AA000E7FBC1C0E92FE7D080F3BA1762077307DD
:101AB0008407950718F071F49EF5FFC00EF4E095C9
:101AC0000B2EBA2FA02D0B01B90190010C01CA01F8
:101AD000A0011124FF27591B99F0593F50F4503EA3
:101AE00068F11A16F040A22F232F342F4427585F95
:101AF000F3CF469537952795A795F0405395C9F7AD
:101B00007EF41F16BA0B620B730B840BBAF0915064
:101B1000A1F0FF0FBB1F661F771F881FC2F70EC003
:101B2000BA0F621F731F841F48F4879577956795D6
:101B3000B795F7959E3F08F0B3CF9395880F08F0BF
:101B40009927EE0F97958795089504D06894B11161
:101B5000B5C0089598D088F09F5790F0B92F992775
:101B6000B751A0F0D1F0660F771F881F991F1AF0A8
:101B7000BA95C9F712C0B13081F09FD0B1E0089595
:101B80009CC0672F782F8827B85F39F0B93FCCF316
:101B9000869577956795B395D9F73EF4909580959E
:101BA000709561957F4F8F4F9F4F0895E89409C0BE
:101BB00097FB3EF490958095709561957F4F8F4F80
:101BC0009F4F9923A9F0F92F96E9BB279395F69596
:101BD000879577956795B795F111F8CFFAF4BB0F14
:101BE00011F460FF1BC06F5F7F4F8F4F9F4F16C078
:101BF000882311F096E911C0772321F09EE8872F02
:101C0000762F05C0662371F096E8862F70E060E0BD
:101C10002AF09A95660F771F881FDAF7880F969536
:101C2000879597F9089597F99F6780E870E060E0DD
:101C300008959FEF80EC089500240A941616170665
:101C400018060906089500240A94121613061406AD
:101C500005060895092E0394000C11F4882352F010
:101C6000BB0F40F4BF2B11F460FF04C06F5F7F4FC8
:101C70008F4F9F4F089557FD9058440F551F59F0AF
:101C80005F3F71F04795880F97FB991F61F09F3F69
:101C900079F087950895121613061406551FF2CF92
:101CA0004695F1DF08C0161617061806991FF1CFE2
:101CB00086957105610508940895E894BB27662709
:101CC0007727CB0197F908950BD0C4CFB5DF28F063
:101CD000BADF18F0952309F0A6CFABCF1124EECFD1
:101CE000CADFA0F3959FD1F3950F50E0551F629F77
:101CF000F001729FBB27F00DB11D639FAA27F00D65
:101D0000B11DAA1F649F6627B00DA11D661F829F8B
:101D10002227B00DA11D621F739FB00DA11D621F70
:101D2000839FA00D611D221F749F3327A00D611D8D
:101D3000231F849F600D211D822F762F6A2F11246F
:101D40009F5750408AF0E1F088234AF0EE0FFF1FC2
:101D5000BB1F661F771F881F91505040A9F79E3FF9
:101D6000510570F060CFAACF5F3FECF3983EDCF3F3
:101D7000869577956795B795F795E7959F5FC1F736
:101D8000FE2B880F911D9695879597F90895991BBD
:101D900079E004C0991F961708F0961B881F7A9562
:101DA000C9F78095089597FB072E16F4009406D086
:101DB00077FD08D00BD007FC05D03EF490958195B7
:101DC0009F4F0895709561957F4F0895AA1BBB1B87
:101DD00051E107C0AA1FBB1FA617B70710F0A61B2B
:101DE000B70B881F991F5A95A9F780959095BC014C
:101DF000CD010895EE0FFF1F0590F491E02D099499
:101E0000453A54656D702E20004D697373696E6795
:101E100020617267756D656E74004F7574206F6612
:101E20002072616E676500546F6F206C6F6E672063
:101E3000617267756D656E7400413A5265736574C1
:101E400074696E672E2E2E0D0A004D697373696ECC
:101E50006720617267756D656E7400496C6C6567AB
:101E6000616C20696E646578004E6F2061726775E1
:101E70006D656E74004E6F2043524C46206F722089
:101E80004E554C4C00496E70757420746F6F206C09
:101E90006F6E67004E6F20646174610060005000D7
:101EA000400030002000100000000701F894FFCF30
:101EB000546F6F2073686F727420696E7075740050
:101EC000005EBCE2613FDD83C29C7E20A3FD1F411A
:101ED000009D23BE46DB65F88C11AF32CA57E9740A
:101EE0004F4B000D0A00503A00543A413A00543A20
:101EF000533A00463A0046616C736500483A004C1C
:101F00003A00493A00563A004E3A004D3A00473AF4
:0E1F100000523A004F3A00543A00453A0000A1
:00000001FF
